{
  "contractName": "Ballot",
  "abi": [
    {
      "constant": true,
      "inputs": [
        {
          "name": "",
          "type": "uint256"
        }
      ],
      "name": "proposals",
      "outputs": [
        {
          "name": "",
          "type": "uint256"
        }
      ],
      "payable": false,
      "stateMutability": "view",
      "type": "function"
    },
    {
      "constant": true,
      "inputs": [],
      "name": "chairperson",
      "outputs": [
        {
          "name": "",
          "type": "address"
        }
      ],
      "payable": false,
      "stateMutability": "view",
      "type": "function"
    },
    {
      "constant": true,
      "inputs": [
        {
          "name": "",
          "type": "address"
        }
      ],
      "name": "voters",
      "outputs": [
        {
          "name": "weight",
          "type": "uint256"
        },
        {
          "name": "voted",
          "type": "bool"
        },
        {
          "name": "vote",
          "type": "uint8"
        }
      ],
      "payable": false,
      "stateMutability": "view",
      "type": "function"
    },
    {
      "inputs": [],
      "payable": false,
      "stateMutability": "nonpayable",
      "type": "constructor"
    },
    {
      "constant": false,
      "inputs": [
        {
          "name": "toVoter",
          "type": "address"
        }
      ],
      "name": "register",
      "outputs": [],
      "payable": false,
      "stateMutability": "nonpayable",
      "type": "function"
    },
    {
      "constant": false,
      "inputs": [
        {
          "name": "toProposal",
          "type": "uint8"
        }
      ],
      "name": "vote",
      "outputs": [],
      "payable": false,
      "stateMutability": "nonpayable",
      "type": "function"
    },
    {
      "constant": true,
      "inputs": [],
      "name": "winningProposal",
      "outputs": [
        {
          "name": "_winningProposal",
          "type": "uint8"
        }
      ],
      "payable": false,
      "stateMutability": "view",
      "type": "function"
    }
  ],
  "bytecode": "0x608060405234801561001057600080fd5b50336000806101000a81548173ffffffffffffffffffffffffffffffffffffffff021916908373ffffffffffffffffffffffffffffffffffffffff1602179055506002600160008060009054906101000a900473ffffffffffffffffffffffffffffffffffffffff1673ffffffffffffffffffffffffffffffffffffffff1673ffffffffffffffffffffffffffffffffffffffff16815260200190815260200160002060000181905550610568806100c96000396000f300608060405260043610610078576000357c0100000000000000000000000000000000000000000000000000000000900463ffffffff168063013cf08b1461007d5780632e4176cf146100be5780634420e48614610115578063609ff1bd14610158578063a3ec138d14610189578063b3f98adc146101f8575b600080fd5b34801561008957600080fd5b506100a860048036038101908080359060200190929190505050610228565b6040518082815260200191505060405180910390f35b3480156100ca57600080fd5b506100d3610242565b604051808273ffffffffffffffffffffffffffffffffffffffff1673ffffffffffffffffffffffffffffffffffffffff16815260200191505060405180910390f35b34801561012157600080fd5b50610156600480360381019080803573ffffffffffffffffffffffffffffffffffffffff169060200190929190505050610267565b005b34801561016457600080fd5b5061016d6103b8565b604051808260ff1660ff16815260200191505060405180910390f35b34801561019557600080fd5b506101ca600480360381019080803573ffffffffffffffffffffffffffffffffffffffff169060200190929190505050610418565b60405180848152602001831515151581526020018260ff1660ff168152602001935050505060405180910390f35b34801561020457600080fd5b50610226600480360381019080803560ff16906020019092919050505061045c565b005b60028160048110151561023757fe5b016000915090505481565b6000809054906101000a900473ffffffffffffffffffffffffffffffffffffffff1681565b6000809054906101000a900473ffffffffffffffffffffffffffffffffffffffff1673ffffffffffffffffffffffffffffffffffffffff163373ffffffffffffffffffffffffffffffffffffffff161415156102c257600080fd5b6000600160008373ffffffffffffffffffffffffffffffffffffffff1673ffffffffffffffffffffffffffffffffffffffff1681526020019081526020016000206000015414151561031357600080fd5b60018060008373ffffffffffffffffffffffffffffffffffffffff1673ffffffffffffffffffffffffffffffffffffffff168152602001908152602001600020600001819055506000600160008373ffffffffffffffffffffffffffffffffffffffff1673ffffffffffffffffffffffffffffffffffffffff16815260200190815260200160002060010160006101000a81548160ff02191690831515021790555050565b6000806000809150600090505b60048160ff161015610413578160028260ff166004811015156103e457fe5b015411156104065760028160ff166004811015156103fe57fe5b015491508092505b80806001019150506103c5565b505090565b60016020528060005260406000206000915090508060000154908060010160009054906101000a900460ff16908060010160019054906101000a900460ff16905083565b6000600160003373ffffffffffffffffffffffffffffffffffffffff1673ffffffffffffffffffffffffffffffffffffffff16815260200190815260200160002090508060010160009054906101000a900460ff16806104c0575060048260ff1610155b806104cf575060008160000154145b156104d957600080fd5b60018160010160006101000a81548160ff021916908315150217905550818160010160016101000a81548160ff021916908360ff160217905550806000015460028360ff1660048110151561052a57fe5b016000828254019250508190555050505600a165627a7a72305820c1860dc4c8b83be1fdec71b7e8a2612fef6b2f92ee8586d98b9b9aaf45c35db30029",
  "source": "pragma solidity ^0.4.17;\r\n\r\ncontract Ballot {\r\n\r\n    struct Voter {\r\n        uint weight;\r\n        bool voted; // Keeps track of whether or not a voter voted\r\n        uint8 vote; // Keeps track of which proposal the voter voted for.\r\n    }\r\n\r\n    //modifier\r\n    modifier onlyOwner() {\r\n        require(msg.sender == chairperson);\r\n        _;\r\n    }\r\n\r\n    address public chairperson;\r\n    mapping(address => Voter) public voters;\r\n    uint[4] public proposals;\r\n\r\n    // Create a new ballot with 4 different proposals.\r\n    constructor() public {\r\n        chairperson = msg.sender;\r\n        voters[chairperson].weight = 2;\r\n    }\r\n\r\n    // Give $(toVoter) the right to vote on this ballot.\r\n    // May only be called by $(chairperson)\r\n    function register(address toVoter) public onlyOwner {\r\n        if(voters[toVoter].weight != 0) revert();\r\n        voters[toVoter].weight = 1;\r\n        voters[toVoter].voted = false;\r\n    }\r\n\r\n    // Give a single vote to proposal $(toProposal)\r\n    function vote(uint8 toProposal) public {\r\n        Voter storage sender = voters[msg.sender];\r\n        if (sender.voted || toProposal >= 4 || sender.weight == 0) revert();\r\n        sender.voted = true;\r\n        sender.vote = toProposal;\r\n        proposals[toProposal] += sender.weight;\r\n    }\r\n\r\n    function winningProposal() view public returns (uint8 _winningProposal) {\r\n        uint256 winningVoteCount = 0;\r\n        for (uint8 prop = 0; prop < 4; prop++)\r\n            if (proposals[prop] > winningVoteCount) {\r\n                winningVoteCount = proposals[prop];\r\n                _winningProposal = prop;\r\n            }\r\n    }\r\n}",
  "sourcePath": "C:\\Users\\guerr\\OneDrive\\Documents\\GitHub\\First-DAPP\\Ballot1\\contracts\\Ballot.sol",
  "compiler": {
    "name": "solc",
    "version": "0.4.25+commit.59dbf8f1.Emscripten.clang"
  },
  "schemaVersion": "2.0.2",
  "updatedAt": "2022-09-04T19:43:26.982Z"
}